{
  "_format": "hh-sol-artifact-1",
  "contractName": "Donate",
  "sourceName": "contracts/Donate.sol",
  "abi": [
    {
      "inputs": [
        {
          "internalType": "address",
          "name": "target",
          "type": "address"
        }
      ],
      "name": "AddressEmptyCode",
      "type": "error"
    },
    {
      "inputs": [
        {
          "internalType": "address",
          "name": "account",
          "type": "address"
        }
      ],
      "name": "AddressInsufficientBalance",
      "type": "error"
    },
    {
      "inputs": [],
      "name": "FailedInnerCall",
      "type": "error"
    },
    {
      "inputs": [
        {
          "internalType": "address",
          "name": "owner",
          "type": "address"
        }
      ],
      "name": "OwnableInvalidOwner",
      "type": "error"
    },
    {
      "inputs": [
        {
          "internalType": "address",
          "name": "account",
          "type": "address"
        }
      ],
      "name": "OwnableUnauthorizedAccount",
      "type": "error"
    },
    {
      "inputs": [
        {
          "internalType": "address",
          "name": "token",
          "type": "address"
        }
      ],
      "name": "SafeERC20FailedOperation",
      "type": "error"
    },
    {
      "anonymous": false,
      "inputs": [
        {
          "indexed": true,
          "internalType": "address",
          "name": "previousOwner",
          "type": "address"
        },
        {
          "indexed": true,
          "internalType": "address",
          "name": "newOwner",
          "type": "address"
        }
      ],
      "name": "OwnershipTransferred",
      "type": "event"
    },
    {
      "anonymous": false,
      "inputs": [
        {
          "indexed": true,
          "internalType": "address",
          "name": "sender",
          "type": "address"
        },
        {
          "indexed": false,
          "internalType": "uint256",
          "name": "amount",
          "type": "uint256"
        }
      ],
      "name": "PaymentReceived",
      "type": "event"
    },
    {
      "anonymous": false,
      "inputs": [
        {
          "indexed": true,
          "internalType": "address",
          "name": "recipient",
          "type": "address"
        },
        {
          "indexed": false,
          "internalType": "uint256",
          "name": "amount",
          "type": "uint256"
        }
      ],
      "name": "Withdraw",
      "type": "event"
    },
    {
      "anonymous": false,
      "inputs": [
        {
          "indexed": true,
          "internalType": "address",
          "name": "recipient",
          "type": "address"
        },
        {
          "indexed": true,
          "internalType": "address",
          "name": "token",
          "type": "address"
        },
        {
          "indexed": false,
          "internalType": "uint256",
          "name": "amount",
          "type": "uint256"
        }
      ],
      "name": "WithdrawERC20",
      "type": "event"
    },
    {
      "inputs": [],
      "name": "deposit",
      "outputs": [],
      "stateMutability": "payable",
      "type": "function"
    },
    {
      "inputs": [],
      "name": "owner",
      "outputs": [
        {
          "internalType": "address",
          "name": "",
          "type": "address"
        }
      ],
      "stateMutability": "view",
      "type": "function"
    },
    {
      "inputs": [],
      "name": "renounceOwnership",
      "outputs": [],
      "stateMutability": "nonpayable",
      "type": "function"
    },
    {
      "inputs": [
        {
          "internalType": "address",
          "name": "_token",
          "type": "address"
        },
        {
          "internalType": "address",
          "name": "_to",
          "type": "address"
        },
        {
          "internalType": "uint256",
          "name": "_amount",
          "type": "uint256"
        }
      ],
      "name": "transferERC20",
      "outputs": [],
      "stateMutability": "nonpayable",
      "type": "function"
    },
    {
      "inputs": [
        {
          "internalType": "address",
          "name": "_to",
          "type": "address"
        },
        {
          "internalType": "uint256",
          "name": "_amount",
          "type": "uint256"
        }
      ],
      "name": "transferNetworkToken",
      "outputs": [],
      "stateMutability": "nonpayable",
      "type": "function"
    },
    {
      "inputs": [
        {
          "internalType": "address",
          "name": "newOwner",
          "type": "address"
        }
      ],
      "name": "transferOwnership",
      "outputs": [],
      "stateMutability": "nonpayable",
      "type": "function"
    },
    {
      "inputs": [],
      "name": "withdraw",
      "outputs": [],
      "stateMutability": "nonpayable",
      "type": "function"
    },
    {
      "stateMutability": "payable",
      "type": "receive"
    }
  ],
  "bytecode": "0x608060405234801561001057600080fd5b5033600073ffffffffffffffffffffffffffffffffffffffff168173ffffffffffffffffffffffffffffffffffffffff16036100845760006040517f1e4fbdf700000000000000000000000000000000000000000000000000000000815260040161007b919061019e565b60405180910390fd5b6100938161009960201b60201c565b506101b9565b60008060009054906101000a900473ffffffffffffffffffffffffffffffffffffffff169050816000806101000a81548173ffffffffffffffffffffffffffffffffffffffff021916908373ffffffffffffffffffffffffffffffffffffffff1602179055508173ffffffffffffffffffffffffffffffffffffffff168173ffffffffffffffffffffffffffffffffffffffff167f8be0079c531659141344cd1fd0a4f28419497f9722a3daafe3b4186f6b6457e060405160405180910390a35050565b600073ffffffffffffffffffffffffffffffffffffffff82169050919050565b60006101888261015d565b9050919050565b6101988161017d565b82525050565b60006020820190506101b3600083018461018f565b92915050565b610e5a806101c86000396000f3fe6080604052600436106100745760003560e01c80639db5dbe41161004e5780639db5dbe414610127578063d0e30db014610150578063f2fde38b1461015a578063fdccb11314610183576100c9565b80633ccfd60b146100ce578063715018a6146100e55780638da5cb5b146100fc576100c9565b366100c9573373ffffffffffffffffffffffffffffffffffffffff167f6ef95f06320e7a25a04a175ca677b7052bdd97131872c2192525a629f51be770346040516100bf91906109ea565b60405180910390a2005b600080fd5b3480156100da57600080fd5b506100e36101ac565b005b3480156100f157600080fd5b506100fa6102b7565b005b34801561010857600080fd5b506101116102cb565b60405161011e9190610a46565b60405180910390f35b34801561013357600080fd5b5061014e60048036038101906101499190610abe565b6102f4565b005b610158610391565b005b34801561016657600080fd5b50610181600480360381019061017c9190610b11565b610424565b005b34801561018f57600080fd5b506101aa60048036038101906101a59190610b3e565b6104aa565b005b6101b46105b1565b600047905060003373ffffffffffffffffffffffffffffffffffffffff16826040516101df90610baf565b60006040518083038185875af1925050503d806000811461021c576040519150601f19603f3d011682016040523d82523d6000602084013e610221565b606091505b5050905080610265576040517f08c379a000000000000000000000000000000000000000000000000000000000815260040161025c90610c21565b60405180910390fd5b3373ffffffffffffffffffffffffffffffffffffffff167f884edad9ce6fa2440d8a54cc123490eb96d2768479d49ff9c7366125a9424364836040516102ab91906109ea565b60405180910390a25050565b6102bf6105b1565b6102c96000610638565b565b60008060009054906101000a900473ffffffffffffffffffffffffffffffffffffffff16905090565b6102fc6105b1565b61032782828573ffffffffffffffffffffffffffffffffffffffff166106fc9092919063ffffffff16565b8273ffffffffffffffffffffffffffffffffffffffff168273ffffffffffffffffffffffffffffffffffffffff167f33c35f9541201e342d5e7467016e65a0a06182eb12a5f17103f71cec95b6cb298360405161038491906109ea565b60405180910390a3505050565b600034116103d4576040517f08c379a00000000000000000000000000000000000000000000000000000000081526004016103cb90610c8d565b60405180910390fd5b3373ffffffffffffffffffffffffffffffffffffffff167f6ef95f06320e7a25a04a175ca677b7052bdd97131872c2192525a629f51be7703460405161041a91906109ea565b60405180910390a2565b61042c6105b1565b600073ffffffffffffffffffffffffffffffffffffffff168173ffffffffffffffffffffffffffffffffffffffff160361049e5760006040517f1e4fbdf70000000000000000000000000000000000000000000000000000000081526004016104959190610a46565b60405180910390fd5b6104a781610638565b50565b6104b26105b1565b60008273ffffffffffffffffffffffffffffffffffffffff16826040516104d890610baf565b60006040518083038185875af1925050503d8060008114610515576040519150601f19603f3d011682016040523d82523d6000602084013e61051a565b606091505b505090508061055e576040517f08c379a000000000000000000000000000000000000000000000000000000000815260040161055590610cf9565b60405180910390fd5b8273ffffffffffffffffffffffffffffffffffffffff167f884edad9ce6fa2440d8a54cc123490eb96d2768479d49ff9c7366125a9424364836040516105a491906109ea565b60405180910390a2505050565b6105b961077b565b73ffffffffffffffffffffffffffffffffffffffff166105d76102cb565b73ffffffffffffffffffffffffffffffffffffffff1614610636576105fa61077b565b6040517f118cdaa700000000000000000000000000000000000000000000000000000000815260040161062d9190610a46565b60405180910390fd5b565b60008060009054906101000a900473ffffffffffffffffffffffffffffffffffffffff169050816000806101000a81548173ffffffffffffffffffffffffffffffffffffffff021916908373ffffffffffffffffffffffffffffffffffffffff1602179055508173ffffffffffffffffffffffffffffffffffffffff168173ffffffffffffffffffffffffffffffffffffffff167f8be0079c531659141344cd1fd0a4f28419497f9722a3daafe3b4186f6b6457e060405160405180910390a35050565b610776838473ffffffffffffffffffffffffffffffffffffffff1663a9059cbb858560405160240161072f929190610d19565b604051602081830303815290604052915060e01b6020820180517bffffffffffffffffffffffffffffffffffffffffffffffffffffffff8381831617835250505050610783565b505050565b600033905090565b60006107ae828473ffffffffffffffffffffffffffffffffffffffff1661081a90919063ffffffff16565b905060008151141580156107d35750808060200190518101906107d19190610d7a565b155b1561081557826040517f5274afe700000000000000000000000000000000000000000000000000000000815260040161080c9190610a46565b60405180910390fd5b505050565b606061082883836000610830565b905092915050565b60608147101561087757306040517fcd78605900000000000000000000000000000000000000000000000000000000815260040161086e9190610a46565b60405180910390fd5b6000808573ffffffffffffffffffffffffffffffffffffffff1684866040516108a09190610e0d565b60006040518083038185875af1925050503d80600081146108dd576040519150601f19603f3d011682016040523d82523d6000602084013e6108e2565b606091505b50915091506108f28683836108fd565b925050509392505050565b6060826109125761090d8261098c565b610984565b6000825114801561093a575060008473ffffffffffffffffffffffffffffffffffffffff163b145b1561097c57836040517f9996b3150000000000000000000000000000000000000000000000000000000081526004016109739190610a46565b60405180910390fd5b819050610985565b5b9392505050565b60008151111561099f5780518082602001fd5b6040517f1425ea4200000000000000000000000000000000000000000000000000000000815260040160405180910390fd5b6000819050919050565b6109e4816109d1565b82525050565b60006020820190506109ff60008301846109db565b92915050565b600073ffffffffffffffffffffffffffffffffffffffff82169050919050565b6000610a3082610a05565b9050919050565b610a4081610a25565b82525050565b6000602082019050610a5b6000830184610a37565b92915050565b600080fd5b610a6f81610a25565b8114610a7a57600080fd5b50565b600081359050610a8c81610a66565b92915050565b610a9b816109d1565b8114610aa657600080fd5b50565b600081359050610ab881610a92565b92915050565b600080600060608486031215610ad757610ad6610a61565b5b6000610ae586828701610a7d565b9350506020610af686828701610a7d565b9250506040610b0786828701610aa9565b9150509250925092565b600060208284031215610b2757610b26610a61565b5b6000610b3584828501610a7d565b91505092915050565b60008060408385031215610b5557610b54610a61565b5b6000610b6385828601610a7d565b9250506020610b7485828601610aa9565b9150509250929050565b600081905092915050565b50565b6000610b99600083610b7e565b9150610ba482610b89565b600082019050919050565b6000610bba82610b8c565b9150819050919050565b600082825260208201905092915050565b7f4661696c656420746f2073656e64000000000000000000000000000000000000600082015250565b6000610c0b600e83610bc4565b9150610c1682610bd5565b602082019050919050565b60006020820190508181036000830152610c3a81610bfe565b9050919050565b7f596f75206d7573742073656e6420736f6d652076616c75650000000000000000600082015250565b6000610c77601883610bc4565b9150610c8282610c41565b602082019050919050565b60006020820190508181036000830152610ca681610c6a565b9050919050565b7f4661696c656420746f205472616e73666572204e6574776f726b20546f6b656e600082015250565b6000610ce3602083610bc4565b9150610cee82610cad565b602082019050919050565b60006020820190508181036000830152610d1281610cd6565b9050919050565b6000604082019050610d2e6000830185610a37565b610d3b60208301846109db565b9392505050565b60008115159050919050565b610d5781610d42565b8114610d6257600080fd5b50565b600081519050610d7481610d4e565b92915050565b600060208284031215610d9057610d8f610a61565b5b6000610d9e84828501610d65565b91505092915050565b600081519050919050565b60005b83811015610dd0578082015181840152602081019050610db5565b60008484015250505050565b6000610de782610da7565b610df18185610b7e565b9350610e01818560208601610db2565b80840191505092915050565b6000610e198284610ddc565b91508190509291505056fea2646970667358221220aa4e03b1eddfac865fe5876902cdcc3ea85d165134e95171339be970eacd7a7164736f6c63430008140033",
  "linkReferences": {},
  "deployedLinkReferences": {}
}